:020000040000FA
:060000000200C702594492
:030013000256AAE8
:03003B0002579DCC
:03004B0002565802
:1000830002584100000080FBE490F300783F790BB5
:100093008002F0A3D8FCD9FA7A3E7BFD9000D67893
:1000A300E979018015E493A3AD82AE838A828B83C1
:1000B300F0A3AA82AB838D828E83D8E9D9E7125A43
:1000C300EF12008675D0007581BF7510007511F3AE
:1000D30002008B15313223342526161A192A0B2CCC
:1000E3000D0E1C000080430000803B00000000CD8B
:1000F300CCCC3C00007A44000020410000004001C9
:1001030000000001004040000040400000803E012C
:1001130000C8430100C8420000003ACDCCCC3D00EA
:1001230000C0400000A0400124744901007A440546
:1001330000000028000000FFFF00003480373B0070
:1001430000803FD7330F437AA53CC029000000004D
:1001530000004500000038010000410000F0415854
:1001630039F43E00000047000034427493D83E0047
:10017300007042F051B83D6666663F0000B442002D
:1001830000F0429899993E000034433433B33E0063
:1001930000A543CDCC4C3E0000F043CDCC4C3D40BC
:1001A3000400004400000078000000030000002F5A
:1001B300D1FFFF1F000000E02E0000A2E792D650FF
:1001C30002F40430F70663F0FF05F0B340038480C4
:1001D3000384F40430D60563F0FF05F022E0667073
:1001E3001008A3E066700A08A3E066700408A3E0A1
:1001F3006622C008C3E096F50808A3E09642080803
:10020300A3E096420808A3E0964208A2D265D03341
:10021300E5087001D3D00822C3E09608A3E096084E
:10022300A3E09608A3E09622C008C3E096F5080869
:10023300A3E096420808A3E096420808A3E0964587
:10024300087001D3D00822080808E630E711120A23
:1002530020120262080808C64480C618181822181B
:100263001818E9799EC608CAC608CBC608CCC6C307
:1002730070207996CACBCC7019798ECBCC70137958
:1002830086CC700EF9802ACA33CACB33CBCC33CC9D
:10029300331930E7F2CCCBCA3350147004EA30E0A0
:1002A3000DE4CA3ACACB3BCBCC3CCC500209C3E9E0
:1002B30013C6CC182313C6CB18C6CA18C6F9221204
:1002C300030D30F039120352803412030D20F01461
:1002D30030E72B74FFFCFBFA747F8022E4FCFBFA0B
:1002E3007480801AB48008BC00F2BB00EF800F500A
:1002F300EBF9E4C39AFAE49BFBE49CFCE499C6CCD7
:1003030018C6CB18C6CA18C6F922E4C9C608CAC695
:1003130008CBC6D3330308CCC63392F0C3947F40D3
:100323002E94184019C9B90704CACBCC225025C34F
:1003330009CA33CACB33CBCC33CC33D9F422F460E0
:100343000DC9CCC313CB13CBCA13CAD9F6CC22E441
:10035300FCFBFA2214FCFBFA22E626184618461880
:100363004622E72719471947194722181818E6089C
:1003730046087009E626087005E633F422082219B8
:100383001919E70947097009E727097005E733F4E5
:10039300220922E6084608C3134608336002E633FF
:1003A300F422E7094709C3134709336002E733F42B
:1003B3002212039660251203A5602012035C7003CA
:1003C300020365080808E76670101819E766700AE3
:1003D3001819E76670041819E76622F422120396C7
:1003E300601C1203A5601712035C7007120365708B
:1003F30001D322C0D01203657006D0D0B322C3222A
:1004030033D0D0501430E0F6C3E7960809E79608D6
:1004130009E7960809E796B32220E0D5E69708098D
:10042300E6970809E6970809E697B3221203966050
:100433001B1203A5601612035C7007120365600CA0
:10044300B322C0D01203657005D0D022C32233D0AB
:10045300D0501330E0EBC3E7960809E7960809E7A5
:10046300960809E7962220E0E4E6970809E697084C
:1004730009E6970809E6972200120396604F1203D4
:10048300A56012E7548066F612036E7011120365BD
:10049300703B090909F4F618F618F618F622120348
:1004A30082701512035C08080860EAE6447FF618B8
:1004B300768018E4F618F62212035C6016120365C0
:1004C3007012E4F608F608F608E65480F6090909FE
:1004D30018181822EAC0E0EBC0E0ECC0E0EDC0E081
:1004E300E687F0A4FBACF008E687F0A42CFCE43527
:1004F300F0FA1809E687F0A42C4B60027401CA35A0
:10050300F0FCE433FB09E687F0D2F7A42CCB35F0FB
:10051300FC1908E687F0A42BCC35F0FBE433FD0887
:1005230019E687F0D2E7A42C4ACB35F0CD3400FC92
:1005330009E687F0D2E7A42DCC35F0FDE433FA09C0
:1005430018E687F0D2F7A42CCD35F0CA3400FC08A6
:10055300E687F0D2E7D2F7A42ACC35F07A7E20E7FB
:100563000B0ACB33CBCD33CDCC33CC33CB3350147D
:100573007004ED30E00ED2F1E4CD3DCDCC3CCC3B6C
:100583005005DA05C2F1EB547FC63308E63392F027
:10059300FBE73309E733C39A502D2B70190C0D4C2D
:1005A3004D70151806E608C333700D20F10AA2F04A
:1005B30013F6E418800B4024E4F630F0027680183A
:1005C300F618F618F68024D33B14501074FFA2F0EB
:1005D30013F6187680E418F618F6800FA2F013F6D7
:1005E30018E63303F618ECF618EDF6D0E0FDD0E08C
:1005F300FCD0E0FBD0E0FA221203A560461203967A
:10060300603DE9687008F618F618F618F62274804B
:1006130067F712062F090909748067F722120396F8
:10062300601D1203A57005191919801A12036E7043
:100633001F120382C37003E66733191919400718A1
:1006430018182208080874FFF618F618F618F62288
:100653001203826017120365702192F012035C701B
:1006630019501720F014080808090909E7F61819A2
:10067300E7F61819E7F61819E7F62212035C60E6A5
:10068300E869701F0808E62480F608E436F6185473
:100693007FB47F0CE654806007F6E418F618F62260
:1006A300181822E9C6CC08C6CD08C6CE08C6CFC0E6
:1006B300E0E8C0E0EAC0E0EBC0E009E9F809E7FAE6
:1006C30009E7FBE6F918E6F8C3EC98ED99EE9AEB27
:1006D300C2E7F5F0EFC2E795F0500E600CEBCFFBED
:1006E300EACEFAE9CDF9E8CCF8EAA2E7D2E7FAEBE9
:1006F30033FB13F5F0EEA2E7D2E7FEEF33FFC5F0CD
:1007030013A2E730E601B313C5F0C3C0E0C0F07F26
:1007130000C39BFB605E9418600F401D14601AD0E9
:10072300E023F9D0E0F80208018AF0E9486003D237
:10073300F0E4AFF0FAF9F8803BEB30E40D89F0EA2E
:100743006003D2F0E4AFF0F9CAF8EB30E30D88F0C0
:10075300EF6002D2F0AFF0E4CAC9F8EB54076014BB
:10076300FBC3EA13FAE913F9E813F8EF135002D2C3
:10077300E0FFDBEDD0E0C0E030E739C3E49FFFF5F5
:10078300F0EC98FC42F0ED99FD42F0EE9AFE42F057
:10079300D0E0F9D0E0F8E5F0607AE923F9EE20E75C
:1007A30042D8028067C3EF33FFEC33FCED33FDEE39
:1007B30033FE80EAEC28FCED39FDEE3AFED0E0236F
:1007C300F9D0E0F84002801BC3EE13FEED13FDECFD
:1007D30013FCEF135002D2E0FF08B800067F7F74CA
:1007E300FF802EEF3350178CF020F00260100CBC0A
:1007F300000C0DBD00080EBE000408E860DFE933FD
:10080300E813FFEE2313FE4F4D4C8008E95480FF9D
:10081300E4FEFDFCEE33EF33F47004FCFD7E80D088
:10082300E0FBD0E0FAD0E0F8D0E0CFC618CEC6188F
:10083300CDC618CCC6F922120396700418181822D4
:100843001203A5700D74FFF61819F61819F6181986
:10085300F622E7548066F612035C700F120365708C
:10086300F014F608F608F608F680D1120365700C4A
:10087300F608F608768008E6447F80EC120385705C
:100883000C12037160BFE65480F6E480BB1203715F
:10089300700519191980A5E869700C763F187680E0
:1008A30018F618F6E8F922E6CDC0E018ECC0E0E649
:1008B30033CD33CDD313F6E719FCE7191933CC3312
:1008C300C3947F400ECD9D502408E65480F6E4186F
:1008D300F6800FF4043D14501408E6447FF61876AE
:1008E30080E418F618F6D0E0FCD0E0FD22CCD31358
:1008F300CCFD18E4C6CBC0E018E4C6CAC0E00808C3
:10090300ED08C633E613F618E433C675F003C3CA1D
:1009130097CA09CB97CB199C40047D08802EBD0054
:10092300030209E316B6FF050606081618C3CA3301
:10093300CACB33CB33CA27CA09CB37CB193CC37DC8
:1009430008803E187D0820E75CC633C6CA33CACB8D
:1009530033CB33DDF1D5F0EB30E77BCA97CA09CB54
:10096300974ACB199C406F4B7025E620E0218066A7
:10097300187D08C3CA97CA09CB97CB199CD3C63332
:10098300C6CA33CACB33CB3350C9DDE7D5F0E1D385
:10099300E4C636C608C636C608C636C608C636C650
:1009A3001818188031C3CA97CA09CB97CB199CB3BF
:1009B3004097C633C6CA33CACB33CB33DD34D5F005
:1009C3002EC6A2E0C640C8CA27CA09CB37194A7047
:1009D300BECB3CB480B90808E63308E633601F1881
:1009E3001818D0E0FAD0E0FBD0E0FCD0E0FD2218EC
:1009F3007D08CA27CA09CB37CB193CD3808013F6AD
:100A030018E4B67F11F618B6FF0EF618C60470D2B6
:100A13000808768080CAF618F618F680C5181818E4
:100A2300E4C396F608E496F608E496F608E496F628
:100A3300226016080808C6C313C618C613C618C60C
:100A430013C618C613C6D5E0EA22E627F60809E658
:100A530037F60809E637F60809E637F622E026F600
:100A630008A3E036F608A3E036F608A3E036F6223C
:100A7300E026F008A3E036F008A3E036F008A3E090
:100A830036F022E056F608A3E056F608A3E056F641
:100A930008A3E056F622E0F608A3E0F608A3E0F682
:100AA30008A3E0F622E6F008A3E6F008A3E6F008C0
:100AB300A3E6F022E0FAA3E0FBA3E0FCA3E0FD221F
:100AC300EAF0A3EBF0A3ECF0A3EDF022E0FCA3E04B
:100AD300FDA3E0FEA3E0FF22ECF0A3EDF0A3EEF014
:100AE300A3EFF022E0F8A3E0F9A3E0FAA3E0FB22EE
:100AF300E8F0A3E9F0A3EAF0A3EBF022CAC0E0E632
:100B0300F0A308DAFAD0E0FA22CAC0E0E0A3C58273
:100B1300CCC582C583CDC583F0A3C582CCC582C5B0
:100B230083CDC583DAE6D0E0CA22C3E498F8E4991A
:100B3300F9120B6E8026C3E49AFAE49BFBE920E7E3
:100B4300E9120B6EE498F8E499F922C3E498F8E407
:100B530099F9120B6EE498F8E499F9C3E49AFAE46C
:100B63009BFB22EB20E7CFE920E7E0B90010BB00B5
:100B730008E88AF084F8AAF022E4FBC8FA22EB70B2
:100B8300227B10C833C8C933C9335007C39AC3DBA8
:100B9300F280069A50012ADBEAC833F4C8C933F459
:100BA300C9FA2275F008E4C833C8C933C933C99AEE
:100BB300C99B5004C92AC93BD5F0ECFBC833F4C820
:100BC300E4C9FA22600D08C6A2E713C618C613C605
:100BD300D5E0F322700422600D18C6C333C608C6DD
:100BE30033C6D5E0F41822251010AF08F510400CD9
:100BF30015118008F51040021511D2AF2200C0D0A4
:100C0300251010AF08F510500C05118008F5105091
:100C1300020511D2AFD0D0222510F58210AF08F50E
:100C230010400C15118008F51040021511D2AF8544
:100C33001183222510F582E43511F583222510F85E
:100C4300E43511F9222510FAE43511FB222510C5EC
:100C530082C0E0E51134FFC583C0E0E510C395828F
:100C630024F910AF088583118582108008858311CC
:100C7300858210D2AFCEF0A3E520F0A37808E60872
:100C8300F0A3DEFAEFF0A3E58124FBF8E608F0A376
:100C9300E608F0A30808E608F0A3E608F0A3158128
:100CA3001581D0E0FED0E0F815811581E8C0E0EEB3
:100CB300C0E022851183851082E0A3FEE0A3F52026
:100CC3007808E0A3F608DFFAE0A3FFE0A3C0E0E0C2
:100CD300A3C0E0E0A3C0E0E0A3C0E010AF088582BA
:100CE300108583118008858210858311D2AFD0834C
:100CF300D08222C0D02510C582C0E0E51134FFC5E3
:100D030083C0E0E510C3958224F310AF08858311F7
:100D13008582108008858311858210D2AFC8F0A325
:100D2300E9F0A3EAF0A3EBF0A37908E709F0A3D86D
:100D3300FAECF0A3EDF0A3EEF0A3EFF0A3D0E0F014
:100D4300A3D0E0F0A3D0E0F0A3E520F0A3E5F0F01A
:100D5300A322851183851082E0C0E0A3E0F9A3E01C
:100D6300FAA3E0FBA37808E0F608A3DFFAE0FCA30C
:100D7300E0FDA3E0FEA3E0FFA3E0C0E0A3E0C0E04A
:100D8300A3E0F5D0A3E0F520A3E0A3F5F010AF08AE
:100D93008583118582108008858311858210D2AFE7
:100DA300D082D083D0E0F8D0E0327404800674029D
:100DB30080027401C0E0F404120C1BD0E0120AFF9D
:100DC300227404800474028000CCC0E0EDC0E0E52E
:100DD30010C39CCCAD1150011D10AF068C108D11AA
:100DE30080068C108D11D2AF120B0CD0E0FDD0E039
:100DF300FC2274F8120C5090F5B57441F0A37454AE
:100E0300F0A3742BF0A3744EF0A37441F0A3744DBC
:100E1300F0A37445F0121C5090F5F9E4F0A3F090A0
:100E2300F5F5740C12593F7E03125814DEFB79005A
:100E33000230F774F1120C50EAFEEBFFEE2406F5D4
:100E43000EE43FF50FEE2405F508E43FF509EE2423
:100E530004F50CE43FF50D8E828F83A3AA82AB8346
:100E6300EE2403F50AE43FF50B8E828F83E07003D3
:100E7300020F3F24F07003020F5D1470030210127F
:100E83001470030210FC1470030211EB14700302BC
:100E9300121B14700302124B24FC70030212BE14C3
:100EA300700302133B1470030213B724FD70030293
:100EB300145024FE7003020FA024FE70030211508D
:100EC30024FB700302127E24FE70030212D81470F6
:100ED300030213541470030213DB1470030214414E
:100EE30024FE700302146314700302147D14700350
:100EF3000215A51470030216981470030216EE145B
:100F030070030217991470030217EC14700302188C
:100F13003F24FE7003021A0E24F770030215DD143A
:100F230070030216C214700302174024F9700302FF
:100F33001A7524F57003021B0B021B5E121C6F1241
:100F43001C50A37420F0A37476F0A37431F0A3743F
:100F53002EF0A37432F0A3021148121C827C0012FB
:100F63001B8B120BD774D8250AFE74F6350BFFEED4
:100F73002AF582EF3BF583E0FEA3E0C0E0121B7F7E
:100F8300D0E0121BE5EEF0090CECC3940240D0054F
:100F930008E508C394084003021B4D80C074216C0C
:100FA3004D704179017508007C00121BCBFBA3E057
:100FB300F50CEBF50D121B8B120BD774D8250AF524
:100FC3000A74F6350BF50BE50A2AF582E50B3B129D
:100FD3001BDB09090CECC3940240CF0508E508C3E9
:100FE300940840C490F711E4F090F710F01276746F
:100FF300E9600312774790F721749CF0A37463F0C0
:1010030090F64EE4F090F64FF090F650021B081263
:101013001C6F90F722121E9190F721121F5C90F71C
:1010230026121F5690F725121F5090F728E090F5CF
:10103300BBF090F727E090F5BCF090F738E090F51F
:10104300BDF090F737E090F5BEF090F73CE090F5F7
:10105300BFF090F73BE090F5C0F090F644780812AB
:101063000A9990FD4E780C120A997808790C1204AB
:101073007B78081202CDAA0874087808120BC712ED
:101083001E5F90F712E090F5C3F090F650E0FB90EE
:10109300F64FE05403C333FA90F64EE03333335440
:1010A300F8F990F710E0C454F0F890F711E0C43366
:1010B30054E048494A4B90F5C4F090FB09E090F5A1
:1010C300C512592290F5C6F090DF09E090F5C7F0FC
:1010D30090DF0AE090F5C8F090DF0BE090F5C9F0DF
:1010E30090DF0CE054F090F5CAF090F631E090F503
:1010F300CB121E977416021A06121C6F90F71A125F
:101103001E9190F653121F5C90F657121F5690F6DD
:1011130058121F5090F659E090F5BB126CEB90F506
:10112300BC126CDD90F5BD126CD790F5BEF090F655
:101133005DE090F5BFF090F65EE090F5C0F090F6BC
:101143005FE090F5C1121E97740C021A06740C6CC2
:101153004D6003021B5E8A828B83E0F890F71AE0EE
:1011630068600CE8F01255B97900125C3D8002E822
:10117300F08E828F83A3A3E090F6531247E190F69B
:1011830057121C0890F6581247D390F659F0850E63
:1011930082850F83E090F65A121C0390F65B121CB3
:1011A3001E90F65C121C3590F65D121C3A90F65EAA
:1011B300F0EE240B121BCF90F65FF07C007D0079DC
:1011C30000E9FA745D1255B034F6F583E0FAEC2ABF
:1011D300FCE43DFD09E9C3940340E6EC4D90F66061
:1011E300600302140502140D121C99AC08EC2CFACE
:1011F300E433FB745E2AF58274F712427C74BE12E8
:10120300679C34F7121BA5C0E0121B7FD0E0121CB1
:101213008B4003021B4D80D3121C99AC08EC2CFAB3
:10122300E433FB747E2AF58274F712427C74CE1287
:10123300679C34F7121BA5C0E0121B7FD0E0121C81
:101243008B4003021B4D80D3121C99AC08EC2CFA83
:10125300E433FB749E2AF58274F712427C74DE1227
:10126300679C34F7121BAC547F48C0E0121B7FD03D
:10127300E0121C8B4003021B4D80D074036C4D6045
:1012830003021B5E90F71B74011240E2E075F03C11
:10129300A4F8A9F08E828F83A3A3E0FAE82AF8E4E6
:1012A30039F9E875F005A4F8AAF075F005E9A42A60
:1012B300F990F737E8F0A3E9021B08121C82AA0889
:1012C300124AB2C0E0121B7FD0E0121C6540EF90BF
:1012D300F6D40213CE74036C4D702DE490F6687847
:1012E30020F0A3D8FC90F688121C4650158E828FEE
:1012F30083A3A3E0C0E0124C00D0E0F090F6D40248
:10130300140590F6D402140D74236C4D6003021B74
:101313005E7901750800121BCBC0E0AA087468123D
:1013230055B034F6F583D0E0121C6540E9EE29127E
:101333001BCF90F6D4021B08121C82AA08124AE89B
:10134300C0E0121B7FD0E0121C6540EF90F6D58001
:101353007A74036C4D702DE490F6897820F0A3D84D
:10136300FC90F6A9121C4650158E828F83A3A3E02E
:10137300C0E0124C35D0E0F090F6D502140590F69B
:10138300D502140D74236C4D6003021B5E79017545
:101393000800121BCBC0E0AA0874891255B034F6BA
:1013A300F583D0E0121C6540E9EE29121BCF90F6BD
:1013B300D5021B08121C82AA08124B1EC0E0121B86
:1013C3007FD0E0121C6540EF90F6D6E0C0E0121B20
:1013D3007BD0E0F009021B4D74036C4D7030E49038
:1013E300F6AA7821F0A3D8FC90F6CA121C4650172F
:1013F3008E828F83A3A3E0C0E0124C6AD0E0F0900A
:10140300F6D67401021B0890F6D6E4021B08742377
:101413006C4D6003021B5E7901750800121BCBC083
:10142300E0AA0874AA1255B034F6F583D0E0121C72
:101433006540E9EE29121BCF90F6D6021B08740112
:101443006C4D6003021B5E124C75021B5E121C6F17
:1014530090F7EE121E9190F7EFE090F5B80215D5D4
:1014630074036C4D6003021B5E8A828B83E090F7EA
:10147300EE121BFA90F7EF021B088A828B83E014AB
:10148300602114602D146039147003021523147045
:1014930003021532147003021587147003021596A4
:1014A300021B5E74026C4D6003021B5E1268B6027F
:1014B3001B5E74026C4D6003021B5E1268C9021B43
:1014C3005E74056C4D6003021B5E121BB81202654D
:1014D300C008C009C00AC00B850C82850D83121B8E
:1014E300BE12026590FD52780C120A997808790CA5
:1014F30012047BD00FD00ED00DD00C780C790812CB
:101503000620780C120DAD8E828F83A3A3E075F0B5
:101513001EA4FAABF01268DC7404120C00021B5E0A
:1015230074026C4D6003021B5E126904021B5E743D
:10153300046C4D6003021B5E8E828F83A3A312484B
:101543008F120265C00CC00DC00EC00F850A8285C4
:101553000B8312488F12026590FD527808120A9984
:10156300780C790812047BD00BD00AD009D0087804
:1015730008790C120620AA08AB09AC0AAD0B126954
:1015830017021B5E74026C4D6003021B5E126C61DA
:10159300021B5E74026C4D6003021B5E126F9702A6
:1015A3001B5E121C6F90F6447808120A9990FD4E48
:1015B300780C120A997808790C12047B78081202C5
:1015C300CDAA0874087808120BC7E50890F5B7F0A0
:1015D300EAA3121E977403021A0674046C4D600387
:1015E300021B5E8A828B83E07052121BB812026563
:1015F300C008C009C00AC00B8E828F83A3A3121B2D
:10160300BE12026590FD4E780C120A997808790C87
:1016130012047B90FD56780C120A997808790C1203
:101623000620D00FD00ED00DD00C780C79081206FE
:101633002090F644780C120AA8021B5E90F7DEE0B5
:1016430064016003021B5E8E828F83A3A3E0F9858E
:101653000A82850B83E0F508E9F509E4F50AF50B41
:10166300780812026590F631E0F990F79EE0F50CE8
:10167300A3E0AA0CFBE4FCFD123C5E8A0C8B0D8CF0
:101683000E8D0F7808790C12083A90F644780812F8
:101693000AA8021B5E121C6F90F71C121E9190F792
:1016A3001D121F5C90F71E121F5690F71F121F503A
:1016B30090F720E090F5BB121E977406021A067489
:1016C300066C4D6003021B5E8A828B83E090F71CDD
:1016D300121BFA90F71D1247E190F71E121C089097
:1016E300F71F1247D390F720021B08121C6F90F7C5
:1016F300F0121E9190F7F2121F5C90F7F1121F5631
:1017030090F7F4121F5090F7F3E090F5BBF090F7C9
:10171300F6E090F5BCF090F7F5E090F5BDF090F7AA
:1017230030E090F5BEF090FAFAE090F5BFF090F754
:101733004AE090F5C0121E97740B021A06740B6CE4
:101743004D6003021B5E8A828B83E090F7F0121BCD
:10175300FAF990F7F1E4F0A31247E090F7F1121CC5
:1017630008F990F7F3E4F0A3E91267EB850E82859D
:101773000F83E0F990F7F5E4F0A3E9121C0390F767
:10178300F5121C1E90F730121C3590FAFA121C3A0F
:1017930090F74A021B08121C6F90F833121BA1909A
:1017A300F833121B9A4003021B4DAA0874F7125513
:1017B300B034F7F583E0C0E0121B6ED0E0F009749B
:1017C3000B1255B034F8F583E0C0E0121B7BD0E078
:1017D300F009741F1255B034F8F583E0C0E0121B12
:1017E3007BD0E0F009050880B6121C6F90F8AD12AB
:1017F3001BA190F8AD121B9A4003021B4DAA08745B
:10180300711255B034F8F583E0C0E0121B6ED0E0DE
:10181300F00974851255B034F8F583E0C0E0121B6B
:101823007BD0E0F00974991255B034F8F583E0C029
:10183300E0121B7BD0E0F009050880B6121C6F9004
:10184300FB0F121E9190FB0E121F5C90FB11121FD7
:101853005690FB10121F5090FB12E090F5BBF01254
:1018630042858A088B098C0A8D0B90FD4E780C12E9
:101873000A997808790C12047B78081202CDAA0819
:1018830074087808120BC7E50890F5BC121E6412A1
:1018930045908A088B098C0A8D0B90FD4E780C12AB
:1018A3000A997808790C12047B78081202CDAA08E9
:1018B30074087808120BC7E50890F5BE121E64126F
:1018C300442D8A088B098C0A8D0B90FD4E780C12DF
:1018D3000A997808790C12047B78081202CDAA08B9
:1018E30074087808120BC7E50890F5C0121E64123D
:1018F300433D8A088B098C0A8D0B90FD4E780C12A0
:101903000A997808790C12047B78081202CDAA0888
:1019130074087808120BC7E50890F5C2121E64908C
:10192300F72FE090F5C4F090F72EE090F5C5F09016
:10193300FB057808120A9990FD4E780C120A9978E3
:1019430008790C12047B78081202CDAA087408786F
:1019530008120BC7E50890F5C6121E6490FB0178C8
:1019630008120A9990FD4E780C120A997808790C9E
:1019730012047B78081202CDAA0874087808120BA7
:10198300C7E50890F5C8121E6490FAFD7808120A9C
:101993009990FD4E780C120A997808790C12047B01
:1019A30078081202CDAA0874087808120BC7E50854
:1019B30090F5CA121E6490FAFB125E41740878080F
:1019C300120BC7E50890F5CCF090FAFBE090F5CD4B
:1019D300F090F7507808120A9990FD4E780C120A8D
:1019E300997808790C12047B78081202CDAA08743E
:1019F300087808120BC7E50890F5CE121E6490F51F
:101A0300B5741AF090F5F504021B5874026C4D601E
:101A130003021B5E121C6F8A828B83E0FCC3945506
:101A230040027C54EC90F5B7F079038C08AA08ECDB
:101A33007F00240BFE50010FC3EA9EE49FA2D265F0
:101A4300D0334003021B4DEA2AFAE433FB74BA2A6B
:101A5300F58274F83B1279668A0A8B0B7408780A4C
:101A6300120BC7121B61E50A121BE5EAF009050810
:101A730080BB74016C4D6003021B5E750800A808EF
:101A8300E828F8E433F974AE28F58274F8121C11CF
:101A9300940C40EA750800A808E828F8E433F91222
:101AA300559D74BA28F58274F8121C1194C040E74E
:101AB300750800AA088A0A750B007402780A120BCB
:101AC300D77413250AF58274FB350BF5831223CAE9
:101AD300EA2AFAE433FB742B2AF58274FB124EF0E4
:101AE300A3F074382AF58274FB124EF0A3F0744409
:101AF3002AF58274FB3B121C12940640B690FB3706
:101B0300E4F090FB50F0805374046C4D704D121C44
:101B13006F79028E828F83A3A3E0FD850A82850BF2
:101B230083E0FC75080080198C828D83E0C0E0128D
:101B33001B61D0E0F0098C828D83A3AC82AD830559
:101B4300088A828B83121B9A40DE74FF2990F5B5B5
:101B5300F00490F5F512593F1258140279F2E9FE98
:101B630074B52EF582E434F5F58322E9FC74B52CC3
:101B7300F582E434F5F58322121BEF22E9FA74B5FA
:101B83001255B434F5F58322EC12314F85080A75EA
:101B93000B007402780A22E0F8E508C39822121CAD
:101BA300A322121BAC54014822F583E0A2E0E433E4
:101BB3001313F8EF22850A82850B83E0F508E4F519
:101BC30009F50AF50B780822E9FAEE2AF582E43FD3
:101BD300F583E02212621439F583E50CF0A3E50DD9
:101BE300F022121BE922F009121BEF2274B529F52A
:101BF30082E434F5F58322F08E828F83A3A3E0225F
:101C0300121C24E022F0850C82850D83E02239F535
:101C130083E4F0A3F00508E508C322121C24A3E023
:101C230022121C2822F08E828F83A3A3A3A3A3A333
:101C3300A322121C40E022121C40A3E022121C2803
:101C4300A3A322041240E2E0F8C3942022A3746DFC
:101C5300F0A37444F0A37472F0A37469F0A37470D6
:101C6300F022F0090508E508C3942122121C73220F
:101C730090F5B5E4F08E828F83E090F5B6F02212F2
:101C83001C73790275080022121BE9EEF00905089E
:101C9300E508C3941022121C7390F712121CA3229E
:101CA300E090F5B7F079037508002274F1120C5037
:101CB3007800790090F712E0C4540F25E0FA74001D
:101CC3001255B034F7127966C3EA94011260894061
:101CD3000A90F721E02AF8A3E03BF990F64EE0647E
:101CE30001600990F64FE07003021E5590F5B5E4CC
:101CF300F0A304127F48333354FC90F5B7F090F609
:101D030053E0700990F64EE0C333FA800C90F64F1F
:101D1300E060047A0280027A0090F5B7E04A127F0D
:101D23004870047A0080027A0190F5B7E04AF0E93E
:101D3300A3F0E8A3121E58120A99E509F990F65385
:101D4300E0702590F64EE06401703590F5FB78085D
:101D5300120A99E50990F5BAF090F5FB7808120A92
:101D630099E50890F5BB801E90F64FE06012E9906C
:101D7300F5BA121E58120A99E50890F5BBF0800BCC
:101D830090F5BAE4F0A3127F486027E990F5BC12FE
:101D93001E58120A99E50890F5BD124133120A99AB
:101DA300E50990F5BE124133120A99E50890F5BF93
:101DB300800690F5BC122C6FF0A374FFF090F637F9
:101DC3007808120A9990FD5A780C120A99780879C2
:101DD3000C12083A78081202CDAA0874087808127F
:101DE3000BC7121E5F90F63B7808120A9990FD5EAE
:101DF300780C120A997808790C12047B780812027D
:101E0300CDAA0874087808120BC7E50890F5C31229
:101E13001E6490F63FE090F5C5F090F64078081206
:101E23000A9990FD62780C120A997808790C1204C9
:101E33007B78081202CDAA0874087808120BC7E54C
:101E43000890F5C6121E6490F5B57412121E9C120A
:101E530058140279F2F090F62B780822E50890F5F1
:101E6300C1F0EAA3F022C082C08390F5B5E4F0A3E9
:101E73007402F090F630121E9190F62FE090F5B8B0
:101E8300121E977403121E9C125814024B2DE090DD
:101E9300F5B7F022F090F5B522F090F5F504F0A334
:101EA300E4F02274F1120C50E9FE90F5B5E4F0A3CE
:101EB3007403F0EEA3F07803600A24FC601D24F49D
:101EC3006055807B90F74B121F5C90F744121F56AE
:101ED30090F745121F50080808806490F750780C5B
:101EE300120A9990FD5A7808120A99780C79081207
:101EF300083A780C1202CDE50D90F5B8F0E50CA385
:101F0300F090F7541257F07A1E7B00120B6EE89094
:101F1300F5BAF07806802890F74C780C120A99905D
:101F2300FD5A7808120A99780C790812083A780C45
:101F33001202CDE50D90F5B8F0E50CA3F07805E8B5
:101F43001490F5B5121E9C1258140279F2E090F524
:101F5300BAF022E090F5B9F022E090F5B8F02274DF
:101F6300F1120C5074F0120BEA90FB12E4F01226FB
:101F7300D290F7F0E0640160030223BC90FB12747B
:101F830001F012489C7408120C36120AC390F74AE7
:101F9300E0A2E0400302203290FB057808120A9980
:101FA30090FD56780C120A997808790C1203B460E4
:101FB3007E90FB057808120A9990FB05780C120AAB
:101FC300997808790C1203B4706590FB05780812B0
:101FD3000A9990FD56780C120A997808790C120424
:101FE3002F74085008120C361223CA8042120C3682
:101FF3007808120A9990FD66780C120A9978087984
:102003000C12047B90FB05780C120A997808790C62
:1020130012042F500C7408120C367808120AA88088
:102023000E90FB05120AE77408120C36120AF3121B
:10203300492D85108285118312433790F74AE0A218
:10204300E140030220F990FB017808120A9990FD00
:1020530056780C120A997808790C1203B4700302AB
:1020630020F990FB017808120A9990FB01780C1271
:102073000A997808790C1203B4707B851082851154
:10208300831257F07A047B00120B6688088909AA29
:1020930008AB0990FB01780C120A99EB123040123D
:1020A300024A780C790812042F8510828511834027
:1020B30028127968EA2AFAEB33FB8A0C12550C12C0
:1020C300024A90FB017808120A99780C79081204E5
:1020D3002F500C851082851183EAF0A3EB801690B4
:1020E300FB017808120A9978081202CD85108285BF
:1020F30011831226C1F07408120C36120AE790FA03
:10210300FD120AF38510828511831257F090FAFBB2
:10211300125931851082851183120DC87C107DFB05
:102123007A0E7BFB1223CF7402120C0090FB0E126B
:10213300579790F72070030223AAE070030223B994
:1021430090F8ADE070030223B990F833E070030216
:1021530023B990FB10127971500890F75E127971D0
:10216300400C90FB127402F090FD5602237790FB13
:10217300127403F07583F77582F112797A40069031
:10218300F7F11257F090F7F3E028FEA3E039C313F9
:10219300FFEE13FE85108285118312304D12024A21
:1021A300740C120C367808120AA890FB10C082C077
:1021B30083740C120C36780C120A991245BD8A08E6
:1021C3008B098C0A8D0B780C790812047B780C121E
:1021D30002CDD083D082E0C3950CF8A3E0950DF92E
:1021E300E8C39EFCE99FFDC312608A500BC3E49CC5
:1021F300F508E49DF50980048C088D0990F75EE0ED
:10220300C39EF8A3E09FF9C312608A500BC3E498FE
:10221300FAE499FBEAF8EBF97A0A7B00120B66C33E
:10222300E89508E99509A2D265D033400302238ECD
:1022330090FB127404F0740C120C36120AE7740249
:10224300120C36120AF37402120C36780C120A9925
:1022530090FD6A7808120A99780C79081203E04015
:102263000302238E7402120C36780C120A9990FD25
:102273005E7808120A99780C790812042F40030239
:10228300238E12303B12024A7402120C36780C125F
:102293000A997808790C12083A12442D8A0C8B0D8E
:1022A3008C0E8D0F7808790C12062090FD66780C41
:1022B300120A997808790C12047B7408120C367888
:1022C3000C120A997808790C1206207402120C3643
:1022D3007808120AA87402120C367808120A999028
:1022E300FD56780C120A997808790C12042F74029F
:1022F3005008120C361223C18023120C36780812B0
:102303000A9990FD6E780C120A997808790C1203D9
:10231300E0500D7402120C361223C17440F0A3F086
:1023230090FB057808120A9990FD4E780C120A99D1
:102333007808790C12047B78081202CDE508450968
:10234300701990FB05E0700CA3E07008A3E0700423
:10235300A3E0600790FB127407802F90F72E1257AB
:1023630097600690F730E0701C90FB127405F074D0
:1023730002120C36120DC47A1E7B001268DC740440
:10238300120C00800690FB127406F07406120C36D1
:102393007435F07407120C36E4F07C02FD740612F7
:1023A3000C48120E368012E0600C90F8ADE0600627
:1023B30090F833E07003126C6174100279EFE4F06B
:1023C300A3F0A322124110E4122C7C2274F1120C0C
:1023D3005074F3120BEA7407120C36124337740568
:1023E300120C36123B797A0080010AEAF874BE12A5
:1023F300492834F7F583E064017006EAC39410407A
:10240300E9EAC39404500302269990F75E12457BD0
:102413001202657401120C367808120AA890F7604C
:102423001257F07583F775825E123AE275080075EC
:102433000900750A00750B007409120C367808122E
:102443000AA8851082851183E4F012411EF874F7FF
:1024530039F9E8FEE9FF8E828F8312432612026563
:102463008E828F83A3A312457B120265780C7908B1
:102473001205FBC00CC00DC00EC00F90FAFB12304A
:102483004D12024AC008C009C00AC00B90FAFD7879
:1024930008120A998A0C750D007402780C120BD776
:1024A3007417250CF58274FB350DF583780C120A2D
:1024B300997808790C1205FBD00FD00ED00DD00CF3
:1024C300780C790812047BD00BD00AD009D0087895
:1024D30008790C1206207409120C36780C120A992A
:1024E3007808790C1206207409120C367808120A3F
:1024F300A8851082851183E004F0C394035003027E
:10250300244D12303B12024AC008C009C00AC00B56
:102513007409120C367808120A9990FD72780C121D
:102523000A997808790C12083A90FD72780C120A0D
:10253300997808790C12047BD00FD00ED00DD00CF3
:10254300780C790812062090FD767808120A99789B
:102553000C790812047B7409120C36780C120AA841
:102563007A037401120C36780C120A997409120C4E
:10257300367808120A99780C790812062074011229
:102583000C36780C120AA8DAD97401120C367808C2
:10259300120A9990FD56780C120A997808790C1250
:1025A300042F500A7405120C361226B1803C7401B4
:1025B300120C367808120A9990FD7A780C120A994F
:1025C3007808790C1203E0500A7405120C361226AF
:1025D300C880177401120C367808120A9978081209
:1025E30002CD7405120C361226BAF07401120C36A1
:1025F3007808120A99C008C009C00AC00B741C12DB
:102603000C361243261202651245BD8A088B098CCB
:102613000A8D0B780C790812047BD00BD00AD009F1
:10262300D0087808790C1205FB7401120C3678086F
:10263300120AA87401120C367808120A9990FD56F2
:10264300780C120A997808790C12042F500A74072F
:10265300120C361226B180507401120C367808120F
:102663000A9990FD7A780C120A997808790C12036A
:10267300E0500A7407120C361226C8802B7401121C
:102683000C367808120A9978081202CD7407120CD6
:10269300361226BA80127407120C361241257405BD
:1026A300120C36124119F0A3F0740D0279EF1241A6
:1026B300107401F0A3E4221241101226C122E5088E
:1026C300F0A3E509221241107490F0A3740122745F
:1026D300F1120C5074F2120BEA90F72E1257976016
:1026E3000990F730E06003022C5290FB011223CAD9
:1026F30090FB051223CB90F7BEE064016003022C2C
:1027030052A3E064016003022C521259371233F7CB
:10271300742B28F874FB122C8350F212593785104E
:1027230082851183125E4174027808120BD77413E9
:102733002508F874FB3509F9E824FCF582E934FF30
:10274300F583120ACF88828983120ADB122C9250F6
:10275300CD90F75E1257F07583F7758260127F1A7A
:1027630090FB2B12593190FAFD7808120A9990FDCB
:1027730056780C120A997808790C1203B47009126E
:10278300489C90FAFD120AC390FAFD7808120A9940
:102793001244968A0C8B0D8C0E8D0F7808790C12CF
:1027A300062090FB137808120AA890FB37E0C39425
:1027B300065003E004F0E064066003022C52125951
:1027C300371233F7744428F874FB122C8350F21237
:1027D30059371233F7743828F874FB122C8350F2EC
:1027E300740A120C40880889097808120DB1740420
:1027F300120C40880889097808120DB17508137501
:1028030009FB7808120DB17C2B7DFB7A067B001245
:102813002CB17406120C00740A120C367808120AD2
:102823009990FD5A780C120A997808790C12042FA2
:10283300401B740A120C367808120A9990FD7E78B0
:102843000C120A997808790C1203E0501E90FB468B
:10285300125797600990FB44E8F0A3E980311248CE
:102863009C8A088B098C0A8D0B800A740A120C3619
:102873007808120A9990FD5A780C120A9978087907
:102883000C12083A78081202CD90FB441226C112AA
:10289300412DA3F01233F7747A28F58274F939F5D0
:1028A3008312579770051243F140E91249418A0890
:1028B3008B098510828511831274867406120C3677
:1028C300122C75120C36122C6F8071124565123062
:1028D3004A12024A90FD82780C120A997808790C00
:1028E30012047B7406120C36780C120A9978087954
:1028F3000C1206207406120C367808120AA8745EAD
:102903002AF874F7122C57C082C0831257ECD08375
:10291300D082122C6312024A7402120C36780C1203
:102923000A997808790C1206207402120C3678087A
:10293300120AA8851082851183127EFE1244121298
:10294300579050877406120C367808120A9990FD36
:1029530076780C120A997808790C1203E0505F74A8
:1029630006120C367808120A9990FD7E780C120A2A
:10297300997808790C12042F50447406120C367897
:1029830008120A997406120C36780C120A99780800
:10299300790C1203B470277402120C367808120AE9
:1029A300997406120C36780C120A997808790C126D
:1029B300083A7402120C367808120AA880087402C6
:1029C300120C361223CA12492D8A08EB12303E121A
:1029D300024A7406120C367808120AA87406120CFE
:1029E300367808120A9990FD86780C120A997808AD
:1029F300790C12047B7402120C36780C120A997843
:102A030008790C12042F50537402120C36780812F2
:102A13000A99C008C009C00AC00B7406120C3678A4
:102A23000C120A9990FD727808120A99780C7908A9
:102A330012047BD00BD00AD009D0087808790C1285
:102A4300042F50177402120C367808120A9978086A
:102A53001202CD90FB381226C1801B90FB3A12570D
:102A630097600990FB38E8F0A3E9800A12492D909A
:102A7300FB38EAF0A3EBF090FB50E0C3940650035D
:102A8300E004F0E064066003022C52851082851195
:102A930083E4F0A3F0122C5CF58274FB12304A122B
:102AA300024A90FD5A780C120A997808790C12049C
:102AB3007B90FB05780C120A997808790C12062092
:102AC30090FB057808120AA874382AF58274FB1261
:102AD300304A12024A90FB01780C120A997808795D
:102AE3000C12062090FB017808120AA88510828533
:102AF3001183125689851082851183C3E0940612CF
:102B03005790409190FB057808120A9990FD8A78B6
:102B13000C120A997808790C12083A90FB05780888
:102B2300120AA890FB017808120A9990FD8A780C82
:102B3300120A997808790C12083A90FB0178081266
:102B43000AA8740A120C36122C75120C361245861A
:102B530012593D122C5CF874FB122C57C082C083AF
:102B63001257ECD083D082122C6312024A90FD5A82
:102B7300780C120A997808790C12047B740A120CE7
:102B830036780C120A997808790C120620740A1206
:102B93000C367808120AA874382AF874FB122C57DA
:102BA300C082C0831257ECD083D082122C631202EE
:102BB3004A7402120C36780C120A997808790C12AE
:102BC30006207402120C367808120AA8122C9250AE
:102BD30082740A120C367808120A9990FD8E780CCA
:102BE300120A997808790C12083A90FD66780C124B
:102BF3000A997808790C12047B90FB05780C120A69
:102C0300997808790C12062090FB057808120AA817
:102C13007402120C367808120A9990FD8E780C1201
:102C23000A997808790C12083A90FD66780C120A12
:102C3300997808790C12047B90FB01780C120A999D
:102C43007808790C12062090FB017808120AA87400
:102C53000E0279EF3B122CA52212457074442A22EE
:102C6300E0C398F508A3E099125532221223C1F06C
:102C7300A322122C7B740222E41223C2F0A3F022BB
:102C8300122CA412796C88828983EAF0A3EBF08575
:102C93001082851183127F0212440D9401124403A2
:102CA3002239F9E824FEF582E934FFF5832274F131
:102CB300120C5074E6120BEA7418120C36123B799C
:102CC300EAFEEBFF7414120C361223CA7410120CB2
:102CD300361223CA7408120C361223CA740C120C4F
:102CE300361223CAFCFD022E0CECF8ED1230F07400
:102CF30018120C36E028FAA3E0398A8212304B12FC
:102D0300024A8510828511837808120AA8851082E9
:102D1300851183780C120A997414120C36780812F0
:102D23000A99780C7908120620850C08850D098507
:102D33000E0A850F0B7414120C367808120AA88C2D
:102D4300088D0974027808120BD77429120C36E027
:102D53002508F8A3E035098882F583120AE774048D
:102D6300120C36120AF38510828511837808120A31
:102D7300997404120C36780C120A997808790C129B
:102D8300047B7410120C36780C120A997808790CAB
:102D93001206207410120C367808120AA87408124E
:102DA3000C36780C120A997404120C367808120A3D
:102DB30099780C7908120620850C08850D09850E73
:102DC3000A850F0B7408120C367808120AA87404CB
:102DD300120C367808120A997404120C36780C1205
:102DE3000A997808790C12047B740C120C36780C4F
:102DF300120A997808790C120620740C120C367892
:102E030008120AA80CEC70010DC3EC9EED9FA2D230
:102E130065D0335003022CEC8E08EF12303E1202C1
:102E23004A7404120C367808120AA87404120C3679
:102E33007808120A99740C120C36780C120A9978D5
:102E430008790C12047BC008C009C00AC00B7408BF
:102E5300120C36780C120A997408120C3678081280
:102E63000A99780C790812047BD00BD00AD009D0C8
:102E7300087808790C1205FB851082851183780880
:102E8300120AA8742B120C361279688510828511E8
:102E930083780C120A9990FD6A7808120A99780CC3
:102EA30079081203E04003023024851082851183E0
:102EB300780C120A9990FD927808120A99780C7985
:102EC3000812042F40030230248510828511837871
:102ED3000C120A998510828511837808120A997851
:102EE3000C79081203B460030230247404120C3604
:102EF3007808120A997410120C36780C120A997811
:102F030008790C12047BC008C009C00AC00B7408FE
:102F1300120C36780C120A997414120C36780812B3
:102F23000A99780C790812047BD00BD00AD009D007
:102F3300087808790C1205FB851082851183780CBB
:102F4300120A997808790C12083A8A828B837808D6
:102F5300120AA890FD8E780C120A997808790C123F
:102F6300042F401A90FD96780C120A997808790C70
:102F73001203E04009780879081203B46012742D33
:102F8300120C361223C78A828B831223CB02301E84
:102F93007414120C367808120A99740C120C3678D1
:102FA3000C120A997808790C12047BC008C009C076
:102FB3000AC00B7408120C36780C120A997410129A
:102FC3000C367808120A99780C790812047BD00B16
:102FD300D00AD009D0087808790C1205FB85108235
:102FE300851183780C120A997808790C12083A74BF
:102FF3002D120C36123044120AA88A828B83780C65
:10300300120A997808790C12083AE50BB2E7F50B26
:10301300742D120C36123044120AA87A007B0080F9
:10302300128A828B831223CA742D120C361223C781
:103033007A01FB741A0279EF8C08EDF50912553405
:10304300221241107808223BF583125E4512553453
:103053002274F8120C5079007E007F00800BA908BF
:1030630018E870190EEE70010FC3EE9CEF9D501E11
:10307300EA2EF582EB121BD2C969F97808E9C3334A
:10308300F508E9A2E750D7749B6508F980D28064FC
:1030930074F8120C507A007B007E007F00EAF8E49B
:1030A300C8F9750808EEFCEFFDEC2CFCED33FDEFE1
:1030B3006954806009EC6421FEED64108003ECFE2A
:1030C300EDFFE428E933F91508E50870D81230ED6F
:1030D300740028F58274F339F583125E5D0AEA7091
:1030E300010BC3EB940140B1800AEAF8EBF9124EED
:1030F300E122EEF07F01020CB674F5120C50EAF8EF
:10310300EBF9ECFEEDFF7AFF7BFF75080075090014
:10311300802EEAFDEBFAE82508F582E93509F58307
:10312300E0F50AEA650A12314F74002AF58274F356
:103133003BF5831273736DFB0508E50870020509FF
:10314300C3E5089EE5099F40C90262C725E0FAE48A
:1031530033FB22E979006AF87B06E8A2E050010913
:10316300C313F81BEB70F32274F6120C5074F012B5
:103173000BEA890890FD3EAC10AD117410120B0CD4
:103183007E07750900750A00A80A851082851183D8
:10319300E5821249283583F583E0FAA908123156EE
:1031A300E9F8C3EE9895E05005850A09E8FE050A9B
:1031B300E50AC3941040D1A9097410120C007F03CF
:1031C300020CB6E9602F14602F14602F14602F14C3
:1031D300602F14602F14602F14602F14602F14605D
:1031E3002F14602F14602F14602F14602F14602F7E
:1031F30014602F8030791522793122793222792394
:1032030022793422792522792622791622791A22E3
:10321300791922792A22790B22792C22790D2279A4
:103223000E22791C2279002274F8120C50E98A824A
:103233008B8324F5606624FE606A14606B24F96056
:103243002E14604824FD604C14604524FE605D2408
:10325300F9602924FE602D14602E24FC603A24FEBC
:10326300603E24FB600E14600F24FE60138044E470
:10327300F0F9804674018036740280327403802E24
:103283007404802A74058026740680227407801EC5
:103293007408801A74098016740A8012740B800EE5
:1032A300740C800A740D8006740E8002740FF0791A
:1032B30000800712316BE9F079010230F774F112E3
:1032C3000C5074FC120BEA7402120C36124337854D
:1032D3001082851183123B797415120C36E0F50ABE
:1032E300A3E0F50B850A82F583E4F0A3F0FEFFFA71
:1032F300FBF508F5097413120C36E0F50EA3E0F59F
:103303000F8069740F5CF98A0C8B0D7406780C12AC
:103313000BD71231C6E9F8E50C48FAAB0DEE2406DB
:10332300FEE43FFFC3EE9408EF12608A40368A0C36
:10333300EE24F8780C120BC71233E3E50C12568215
:10334300EE24F8FEEF34FFFF750C01750D00EE78E7
:103353000C120BD7E50C24FFF8E50D34FFF9E85AFE
:10336300FAE95BFB0508E508700205091233F7C3A8
:10337300E50898E509995030E509C313F9E5081301
:10338300F87402120C36E028FCA3E0398C82F58332
:10339300E0FC1230F1E508687002E969600302336A
:1033A30006ECC4540F023309EE4F602F7508017504
:1033B3000900EE7808120BD7E50824FFF8E5093475
:1033C300FFF9EA58F508EB59F5097408C39E780824
:1033D300120BD71233E3E50812568274040279EF15
:1033E300850A82850B831257F4E50E28F582E50FD3
:1033F30039F583221233FB22851082851183E0F88D
:10340300A3E0124EE02274F1120C5074FA120BEA8C
:103413007404120C361243377402120C36123B79C1
:10342300750800750900750F00750E00750A0075A3
:103433000B00806E8E0C8F0DE50824FA780C120BAE
:10344300C7E50C543F851082851183F0AA10AB1198
:10345300F912322BE0F87401120C36E0C454F04830
:10346300F0630F01E50F701AE0C0E0A80E741512A7
:103473000C36E028FAA3E034008A82F583D0E0F02A
:10348300050EE50824FAF508E50934FFF509C3E557
:10349300089406E50912608A509A050AE50A700243
:1034A300050B7402120C361257F0C3E50A98E50BAC
:1034B300995020EEFF7404120C36E0250AF8A3E0BD
:1034C300350B8882F583E0FEE5082408F508E4352A
:1034D3000980B97417120C36123AEBE50E12593FF4
:1034E30074060279EFC008C0097C007D008019785A
:1034F3000079000008E870010974FF68700374FF25
:103503006970F00CEC70010D8A088B09740478085B
:10351300120BD7C3EC9508ED9509A2D265D03340C1
:10352300CED009D0082274F1120C5074F3120BEAB6
:103533008510828511831243377404120C36E9F027
:10354300ECFEEDFFE06003023AC385108285118330
:10355300E02409127EF77407120C36124166240721
:10356300127EF77405120C361241662408127EF798
:103573007402120C361241662404127EF7880889FD
:1035830009851082851183123B1FFB74AA6B6008A7
:1035930074AB6B60030237C074226E4F6003023753
:1035A300C0123AC6E0F890F657E06860030237C0ED
:1035B300123B13A3E0F890F658E06860030237C0AB
:1035C3008508828983E0F890F659E0686003023742
:1035D300C090F7EEE0146005146011804E90F7EF91
:1035E300E0F890F718E0C398504180107402120C71
:1035F30036123B52503590F64EE0702F7508007826
:1036030008120DB590FD9A120DC4750801750900D5
:103613007808120DB179007C227D007407120C36F4
:10362300127968125F987407120C0090F7161257FC
:10363300F07583F7758214123AE290F712E0FA7488
:1036430002120C36123B2D1274C47402120C361281
:103653003B1FFC90F712E054F0FAEC54F06A70014F
:10366300E4700302375DEC124159123B2464AA90C3
:10367300F632700474018001E4F07405120C361202
:103683003B1F90F631F07407120C3612410C123BBB
:1036930072240A123B3490F603123B79A3EEF0A393
:1036A300123B8A240B123B6C240C123B3490F6071A
:1036B300123B7F7A00EAF825E0FCE433FD851082B3
:1036C300851183E02CFCA3E03DFDEC2411F582E49D
:1036D3003DF583E0FFEC2412F582E43DF583E0FC45
:1036E300E42CEFFD3395E0FE880875090074027839
:1036F30008120BD7740B2508F58274F63509F58388
:10370300123B7F0AEAC3940740AB90F71612579710
:1037130070481259287402120C36123B52504D74E1
:1037230002120C36123B2F1274918B09EA45097071
:103733000B90F716E024A6127F05801D7402120C6D
:1037430036123B2D1274918A088B09A808A9099097
:10375300F716C3E098F0A3E099F07402120C361246
:103763003B52500890F64FE0D2E1800690F64FE0CE
:10377300D2E0F07402120C36123B1FC4540F5407EC
:10378300F874F828F8E434F6F97402120C36127956
:1037930061A2E088828983E05004C2E18002C2E032
:1037A300F07402120C36123B1F90F712F090F735AB
:1037B300742812593F90F733F0A30239E990F65C6D
:1037C300E0FA90F65BE0FC851082851183E0240526
:1037D300127EF774A26B60030239ED123AF7E0FB35
:1037E30090F65AE06B6003023AAE123AF7A3E06C2C
:1037F3006003023AAE851082851183A3E0F5838BC3
:1038030082A3A3A3E06A6003023AAE90F71BE064CD
:103813000170137900EEFC8510828511831279689B
:10382300124644023AAE850882850983E064046047
:1038330003023AAE88828983E0FA90F510E06A7059
:1038430003023AAE90F64EE06003023AAE888289F4
:1038530083E090F510124159241DFCA3E03400FDD0
:10386300123B46240E123AD5880CF50D95E0F50E61
:10387300F50F8C828D83E0A2E0E433F508E4F509CB
:10388300F50AF50B780C7908120A4D7409120C36F7
:10389300780C120AA8123B462419F582E438F58302
:1038A300E090F64C123B8A241AF582E438F583E063
:1038B30090F64D123B8A241B123B6C241C123B587E
:1038C30012026590FD5A7808120A99780C79081249
:1038D300047B90F637780C120AA8123B4624151283
:1038E3003B6C2416123B5812026590FD5E78081259
:1038F3000A99780C790812083A90F63B780C120A68
:10390300A8123B462417F582E438F583E090F63F8E
:10391300123B8A2411123B6C2412123B581202658B
:1039230090FD627808120A99780C790812083A9087
:10393300F640780C120AA890FD9E7808120A997432
:1039430009120C36780812021B40447409120C3613
:10395300120AE790F5FB120AF3123B46240F123AC0
:10396300D58808F50995E0F50AF50B90F5FF780879
:10397300120AA88C828D83E0A2E1E433F508E4F512
:103983000990F5FF7808120A7390F64E7401F074EB
:1039930005120C36123B1F541F90F71CF0740212D1
:1039A3000C36123B1F90F71DF07407120C36123BB6
:1039B3001F90F71EF090F7207401F090F735E4F0B4
:1039C300A3F090F733749612593F90F71612579756
:1039D3006003023AAE90F6D4E06003023AAE1259A5
:1039E3002890F7127480F0023AAE74A76B705C856E
:1039F300108285118312410CA3E0F890F65AE06817
:103A03006003023AAE123B13E06C6003023AAE125B
:103A13003AC6A3E06A6003023AAE90F743E064015A
:103A23006003023AAE12621CE9F8850882850983B5
:103A3300E0687077EEFCEFFD8510828511831279C3
:103A430068790012630B126160806074A56B705B10
:103A530074076E4F7055851082851183123AEBA35C
:103A6300E0FA90F65DE06A7042123B07E0FA90F6E6
:103A73005EE06A7036123B07A3E0FA90F65FE06AF5
:103A8300702990F73912766E702190F7397464F0CB
:103A9300A3E41247D3A2E0E433FB88828983E0F8EE
:103AA300EBF990F62F125931121E6990F64FE06030
:103AB3000F90F64EE06401700790F737E4F0A3F03F
:103AC3000226AC851082851183A3E0F5838882A347
:103AD300A322F582E438F583E025E0F8E43322E01D
:103AE300C398FCA3E099FD22123AEF22127373F5F7
:103AF300838A8222851082851183E0FBA3E0F5830C
:103B03008B82A322851082851183123AEFA3A3220D
:103B1300851082851183E0F8123ACC22123B2322CE
:103B2300E0F8A3E0F5838882E022E0F8123B25F970
:103B330022F582E43AF583E0FAE42AFCE9FD3395C1
:103B4300E0FE22851082851183E0F8A3E0C82212EB
:103B53003B23A2E022F582E43AF583E0F50CE9F594
:103B63000DE4F50EF50F780C22F582E438F583E0C9
:103B7300F912736DCA22ECF0A3EDF022ECF0A3ED81
:103B8300F0A3EEF0A3F02212416EF8A3E0C8227472
:103B9300F1120C5090F653E06003023C3890F63279
:103BA300E06401701590F512E4F090F6441223CB13
:103BB30090F64A74FFF0A3023C5A90F64FE070036C
:103BC300023C5B90F632E06003023C5B90F64EE011
:103BD30064016003023C5B90FD9E7808120A999091
:103BE300F5FB780812021B406F90F64DE0F890F653
:103BF3004CE0F990F64AE0697005A3E0686018901C
:103C0300F64CE090F64AF0E8A3F090F5117402F058
:103C130090F512E4F0800690F511E0600790F5113D
:103C2300E014803390F512E0700F7401F090F644C5
:103C33001223CA801D6402701F90F6447808120A8A
:103C43009990FD56780C120A997808790C1203B4EE
:103C5300700690F7497401F00279F274F1120C5076
:103C63008A088B098C0A8D0BE9FE90FDA278081255
:103C73000A86780812024AC008C009C00AC00B8E1F
:103C830008E4F509F50AF50B780812026590FDA61C
:103C9300780C120A997808790C12047B90FDAA78A3
:103CA3000C120A997808790C12062090FDAE780C54
:103CB300120A997808790C12047BD00FD00ED00D1C
:103CC300D00C780C790812083A90FDB27808120AE1
:103CD30099780C7908120620AA0CAB0DAC0EAD0F27
:103CE3000279F2C082C08390F650E064017025909F
:103CF300F72C125797701D90F650E4F0123B921276
:103D03003D1A12417B121CAE121F6290F64EE4F074
:103D130090F64FF0024B2D74F1120C5074F7120B06
:103D2300EA851082851183740FF012411EFC74F72B
:103D3300125E4D74BE2AFCE434F71240F5747E28FB
:103D4300FC74F7125E4D74CE2AFCE434F71240F58E
:103D5300749E28F874F739122C5812615A88828994
:103D630083123B7974DE2AF8E434F7F9E824FFF58B
:103D730082E9125F608882898312415914F070AA24
:103D830090F653E0705190F64EE06401703E90F56A
:103D9300FB7808120A9990F75E12620F90F7BE74CF
:103DA30001F090F5FF7808120A9990F76012620FFC
:103DB30090FDB67808120A9990F5FF780812021B55
:103DC30090F7BF40047401800DE4800A90F75EE42D
:103DD300F0A3F090F7BEF090F64FE0700302404975
:103DE30090F631E0F990F603120AB7123C5E90F6B2
:103DF30033120AC390F6337808120A9990F644787E
:103E03000C120A997808790C12047B78081202C202
:103E130090F62B7808120AA890F653E07003023F3D
:103E23000090F62B7808120A9990F75E12414F1210
:103E33000A9990FD6A780C120A997808790C120392
:103E4300E0500E90F632E0700890F7BE7401F080F7
:103E53001E90F7BEE4F090F6447808120A9990FD9C
:103E63006A780C120A997808790C1203E050698574
:103E73001082851183E0FE90F631E0F98E08750912
:103E83000074027808120BD71240E8120AB7123CEA
:103E93005E8A0C8B0D8C0E8D0F90F6447808120AF7
:103EA30099780C790812047B780C1202C2EE2EF872
:103EB300E433F9746028F58274F739F583124143CA
:103EC3007004740180027400C0E074BF2EF582E4B4
:103ED30034F7F583D0E0801D85108285118312416C
:103EE30002746028F58274F71255A474BF1255B09A
:103EF30034F7F583E412415D5003023E5990F62BEB
:103F03007808120A9990F77E12414F120A9990FD90
:103F13006A780C120A997808790C1203E0500D9014
:103F2300F632E0700790F7CE7401800490F7CEE488
:103F3300124133120A9990F79E12413A90F7DE70BC
:103F43000474018001E412412DE025E0FEE433FF17
:103F530074802EF874F73FF97403120C361241661D
:103F6300F50875090074027808120BD71240E8129D
:103F73000AE77405120C36120AF385108285118341
:103F8300E0F874CF28F8E434F7F97401120C361210
:103F9300593190F644780C120A9990FD6A78081208
:103FA3000A99780C79081203E0504E90F631E0F943
:103FB3007405120C36120AB7123C5E8A0C8B0D8CF8
:103FC3000E8D0F90F6447808120A99780C7908122E
:103FD300047B780C1202C27403120C3612410C12C9
:103FE30041437004780180027800E8C0E074011254
:103FF3000C3612410CD0E0800F7403120C361241C0
:104003002504120C36124119F07405120C36780887
:10401300120A9974A02EF58274F73FF58312413A80
:104023007004780180027800E8C0E0851082851171
:1040330083E0F874DF12492834F7F583D0E01241A6
:104043005D5018023F4C90F77EE4F0A3F090F79E8A
:10405300F0A3F090F7CEF090F7DEF0851082851193
:1040630083E4F012410274BE2AFCE434F7FD8C822F
:104073008D83E064017023745E28FE74F739FF8E2C
:10408300828F83C3E09429A3E09400500D8E828F26
:1040930083E4F0A3F08C828D83F074CE2AFAE434A7
:1040A300F7FB8A828B83E064017021747E28F874A5
:1040B300F739F988828983C3E09429A3E0940050F7
:1040C3000B88828983E4F0A31240E2F08510828595
:1040D3001183E004F0C39410408974090279EFF06E
:1040E3008A828B832274072508F58274F63509F5D5
:1040F3008322FDEC24FF125F5D8C828D83F02212FC
:10410300410622E0FA1242752212411022E0F8A37E
:10411300E0F583888222124110E422124106745E84
:104123002822124110E4F0A3F022124173E4F0229A
:10413300F090F6037808221226C1F090F632E022BE
:10414300E50CF0A3E50DF090F632E0221226C1F063
:1041530090F64478082212416E2212416E04F0C395
:10416300940822E8F0A3E912416E22124173E0227F
:10417300F08510828511832274F1120C5090F5178B
:10418300E070107401F090F5131223C1747FF0A353
:104193007443F07C5F124270747A28FA74F939FB25
:1041A300EA24FEF582EB34FF12427D8A828B83126E
:1041B3005E5D74BA28F874F812432CDCD890F97A4F
:1041C300E4F0A3F090F8BA124EFFE0640170789027
:1041D300F5137808120A9990F637780C120A997831
:1041E30008790C12042F505390F72E125797701A18
:1041F300124941EA75F02CA4CAA8F028F875F02CEE
:10420300EBA428FB90F72E12433790F63778081269
:104213000A9990F513780C120A997808790C12050B
:10422300FB90FDBA780C120A997808790C12047B7A
:1042330078081202CD90F97A12620F90F637120ABB
:10424300E790F513120AF390F8B81257F090F8BA02
:104253001259317C0512427074AE28F874F8124377
:104263002CDCF290F8AEE4F0A3F00279F2EC124207
:10427300752225E0F8E433F9223BF583E0FEA3E061
:10428300FF2274F1120C5074FE120BEA1243E71270
:1042930030ED747A28F58274F91243DB12024A90E6
:1042A300FD827808120A99780C790812047B90F53C
:1042B3000C780C120AA885108285118312433712D9
:1042C300432012026590FDBE7808120A99780C7992
:1042D3000812047B90F504780C120AA890F50C7868
:1042E30008120A9990F504780C120A997808790C47
:1042F30012047B90F500780C120A997808790C1255
:10430300062090F5007808120AA81243F140B01273
:1043130043D112608A400302429202455A1233FB90
:1043230012498212773A780C22122CA4127373FB6F
:1043330088828983EAF0A3EBF02274F1120C5074A3
:10434300FE120BEA1243E7124ED21243DB12024A69
:1043530090FD827808120A99780C790812047B90F0
:10436300F508780C120AA885108285118312433749
:1043730012432012026590FDBE7808120A99780C48
:10438300790812047B90F504780C120AA890F508BA
:104393007808120A9990F504780C120A997808792A
:1043A3000C12047B90F500780C120A997808790CAA
:1043B30012062090F5007808120AA81243F140B0C3
:1043C3001243D112608A400302434A02455AEA2447
:1043D300FF1AEB34FFFBC32239F583E0F50CA3E0AE
:1043E3001255102290F500122C7B7A5FFB22851068
:1043F30082851183127EE212440D946012440322DB
:10440300A3E09400A2D265D03322124412E0221218
:104413004173C32274F1120C5012433D8A088B0975
:104423008C0A8D0B1242850245A374F1120C509035
:10443300F5001223CAFAFB1230ED74AE28F582742C
:10444300F81243DB12024A90FD827808120A997827
:104453000C790812047B90F508780C120AA890F5E1
:1044630000780C120A9990F5087808120A99780CCA
:10447300790812062090F500780C120AA80AEA704F
:10448300010BC3940612608940AD90F500120AB780
:104493000279F274F1120C5074FE120BEA90F500DB
:1044A300124586F0A3F01245653B1243DC12024A23
:1044B30090FD827808120A99780C790812047BC05F
:1044C3000CC00DC00EC00F747A2AF58274F9123035
:1044D3004A12024A90FD82780C120A997808790CE4
:1044E30012047BD00FD00ED00DD00C780C790812AB
:1044F300062090F508780C120AA8743A2AF58274FB
:10450300FA3BF58312457B12026590FDBE780C12CF
:104513000A997808790C12047B90F5047808120A3A
:10452300A890F5087808120A9990F504780C120AF5
:10453300997808790C12047B90F500780C120A998B
:104543007808790C12062090F5007808120AA81250
:1045530043F150030244A990F500120AB774020212
:1045630079EF12457074BA2AF58274F82212736DCA
:10457300FBEA2AFAEB33FB22125E45E4F50AF50B5C
:10458300780822122C7B8510828511832274F11204
:104593000C5012433D8A088B098C0A8D0B12442D53
:1045A3008A0C8B0D8C0E8D0F7808790C120620AABD
:1045B30008AB09AC0AAD0B0279F274F1120C50127C
:1045C300441780D174F1120C5074FC120BEA8A0860
:1045D3008B098C0A8D0B90FD8A780C120A99780846
:1045E300790C12083A8510828511837808120AA87B
:1045F3007A008510828511837808120A9990FDBA92
:10460300780C120A997808790C12047B7808120244
:10461300CD12463812620C0AEAC3940640D4023320
:10462300DEC082C0837A00124638124EE8C3940675
:1046330040F5024B2DEA12427574AE28F58274F8E8
:104643002274F5120C5074F1120BEAE9600302476D
:10465300CB90F71BE0640160030247CB8A828B8314
:10466300E064A260030247CBA3A882A983E0FC9085
:10467300F65AE06C60030247CBEA2402FCE43BFDFC
:104683008C828D83E0FF90F65BE06F60030247CB83
:10469300EA2403F508E43BF509850882F583E0FF86
:1046A30090F65CE06F60030247CBEA2404F50AE46A
:1046B3003BF50B850A82F583E024FC601024FC6043
:1046C3000C1460091460061460030247CB85108242
:1046D30085118374A21267DAC0E07401120C36D01C
:1046E300E01267CAC0E07402120C36D0E01247D35E
:1046F300C0E07403120C36D0E0F07404120C36746C
:10470300061240E2A3A3A3A3A3E0547FC0E0740571
:10471300120C36D0E01267DAC0E07406120C36D001
:10472300E01267CAC0E07407120C36D0E01247D318
:10473300C0E07408120C36D0E0F07409120C36E4B1
:104743001247E1C0E0740A120C36D0E01247E124AC
:10475300F8601D14600814600E14601D8024740B2F
:10476300120C36740A8025740B120C367408801CE4
:10477300740B120C36740B8013740B120C36740406
:10478300800A740B120C36E4F090F71BF0740C12D1
:104793000C36E4F0740D120C36E4F07C0EFDAA1016
:1047A300AB11123054740E120C36E9F07508017512
:1047B30009007808120DB17C0F7D007402120C48B9
:1047C300125DC47402120C00740F120C000262C753
:1047D3001247D722F0850882850983E022E9F08514
:1047E3000A82850B83E02274F1120C50E975F03CC8
:1047F300A4A9F02AFAE439FB750C00750D00750EB7
:1048030000750F00C3EA94A0EB9405500C90F833A5
:10481300E0701090F7497401F07A007B007C007D12
:104823000080667C00ECF874F712492834F7F583AE
:10483300E075F03CA4F508ADF0740B12492834F888
:10484300F583E0F50AE508250AF508E43DF509C313
:10485300EA9508EB9509401E741F12492834F8F5B0
:104863008312488F12026590FD5A7808120A9978CC
:104873000C790812047B0C90F833E0F8ECC39840F1
:10488300A4AA0CAB0DAC0EAD0F0279F2E0F50CE46B
:10489300F50DF50EF50F780C22C082C08390F71D3D
:1048A300E0FA90F71CE0F91247EA024B2D74F41278
:1048B3000C50E975F03CA4A9F02AFCE439FD7A0018
:1048C3007B0090F8ADE0700890F7497401F0804EDA
:1048D300C3EC94A0ED94055045750C008035A80CED
:1048E300126791E075F03CA4FE85F00AAF0A124905
:1048F3002634F8F583E0F50AEE250AFEE43FFFC30C
:10490300EC9EED9F400B749912492834F8F583E02F
:10491300FA050C90F8ADE0F8E50CC39840C07F05AC
:10492300020CB6748528F582E422C082C08390F716
:104933001DE0FA90F71CE0F91248B0024B2D74F811
:10494300120C507E007F007C607A00EA12427112E2
:1049530049821257F0C3E89EE99F4006E8FEE9FF4B
:10496300EAFC0AEAC3946040E274606C70067A3C25
:104973007B008008EC75F005A4FAABF00230F77405
:104983003A28F58274FA39F5832274F8120C50E947
:104993006003024A8390F719E0543FF8742068706B
:1049A3000990F718E01313543FF08A828B83E0FDDC
:1049B30074AA6D600574AB6D7035A3A3E0FE90F629
:1049C30057E06E702A8A828B83A3A3A3E0FE90F63E
:1049D30058E06E701A8A828B83A3A3A3A3E0FE9090
:1049E300F659E06E7009746828F8E434F680797437
:1049F300A26D600574A76D70368A828B83A3E0FE77
:104A030090F65AE06E70288A828B83A3A3E0FE900F
:104A1300F65BE06E70198A828B83A3A3A3E0FE90FA
:104A2300F65CE06E7009748928F8E434F680397412
:104A3300A56D704C8A828B83A3E0FD90F65DE06DDB
:104A4300703E8A828B83A3A3E0FD90F65EE06D70D7
:104A53002F8A828B83A3A3A3E0FA90F65FE06A70A8
:104A63001F74AA28F8E434F6F990F718E0FA88825C
:104A73008983E0C39A500990F718E088828983F00C
:104A83000230F7C082C083790090F668E0FC7801B9
:104A9300E8FA124AB2FAC39C4004EAFCE8F908E8CF
:104AA300C3942140EBE9D2E6F990F6CE024B297488
:104AB300681255B434F6F583E022C082C0837900CE
:104AC30090F689E0FC7801E8FA124AE8FAC39C40C0
:104AD30004EAFCE8F908E8C3942140EBE9D2E7F9DA
:104AE30090F6D0804174891255B434F6F583E022F0
:104AF300C082C083790090F6AAE0FC7801E8FA123C
:104B03004B1EFAC39C4004EAFCE8F908E8C394216D
:104B130040EBE944C0F990F6D2800B74AA1255B465
:104B230034F6F583E022F0ECA3F0D083D08222C0E8
:104B330082C083124A86E9F990F6CBE0F808742123
:104B43006870027800E96860F4E8F0124BA380DA39
:104B530074F8120C50124ABDE9F890F6CCE0FE0E40
:104B630074216E70027E00E86E60F4E0F8EEC39884
:104B73005003124C0B0230F574F8120C50124AF326
:104B8300E9F890F6CDE0FE0E74216E70027E00E827
:104B93006E60F4E0F8EEC3985003124C400230F517
:104BA300C082C08390F6D4E0705090F6CBE0C394FB
:104BB3000240477C287A00EAF8124C00E0C3940BC9
:104BC3004002EAFC0A90F6CBE0F8EAC39840E8EC2E
:104BD300C3941E5019E0FAEC79002402F85001093D
:104BE300C3EA98E499A2D265D0335008800CECC391
:104BF3009420500690F6D47401F0024B2D7468286B
:104C0300F582E434F6F58322C082C0837B287A00E0
:104C1300EAF8124C35E06002EAFB0AEAC39420404A
:104C2300EFEBC3942090F6D5500474018001E402A5
:104C33004B2C748928F582E434F6F58322C082C0B4
:104C4300837B287A00EAF8124C6AE06002EAFB0AE6
:104C5300EAC3942040EFEBC3942090F6D65004743B
:104C6300018001E4024B2C74AA28F582E434F6F5A2
:104C73008322C082C083E490F6897820F0A3D8FC15
:104C830090F6A904F090F6CCE4F090F6D5F090F607
:104C9300D77440F090F7487401024B2CE5F4A2E07E
:104CA300E433F5F453F402C290C29143FE0143FE90
:104CB300022253BEFBE5BEA2E650FA0053C6C05320
:104CC300C68043C61843BE0453BE7F22E5F154FE9B
:104CD3004402F5F143F33C75C2A3E5C554E044082F
:104CE300F5C543868053C4FE43C40253C4FB53C477
:104CF300F753C4EF53C4DF53C4BF53C5DF2274F764
:104D0300120C5090F5F5E4F0A3F090F5F7F0A3F052
:104D130090F5F9F0A3F090F721749CF0A37463F07D
:104D23001279A690F72CF0A3F090F72EF0A3F09051
:104D3300F730F090F7317428F0A37423F090F73D27
:104D4300124EFEF090F71AF090F651F090F650F0F4
:104D530090F73FF0A3F090F71BF090F741F0A3F02A
:104D630090F743F090FBD5F090F747F090F74904A4
:104D7300F090F74AE4F090F735F0A3F090F733F0B2
:104D8300A3F090F713F090F716F0A3F090F653F01A
:104D930090F7561267F390F648F090F649F090F7C3
:104DA300127480F07A007B0074572AF58274F6122D
:104DB3004EF0745A2AF58274F6124EF0745D2AF599
:104DC3008274F6124EF670010BC39403126089408D
:104DD300D790F711E4F090F710F0FAFB74F82AF586
:104DE3008274F63BF5837403F08A088B0914780800
:104DF300120BD71273A41273AC0AEA70010BC3949B
:104E03000812608940D67A007B0074F72AF5827411
:104E1300F7124EF0740B2AF58274F8124EF0741FD9
:104E23002AF58274F8124EF670010B12608640DA8E
:104E330090F833E4F0FAFB74342AF58274F8124ED6
:104E4300F074482AF58274F8124EF0745C2AF582E5
:104E530074F8124EF670010B12608640DA90F87007
:104E6300E4F0FAFB74712AF58274F8124EF074853B
:104E73002AF58274F8124EF074992AF58274F812A6
:104E83004EF670010B12608640DA90F8ADE4F01232
:104E930055491255B9125ADAF090F7F0F0FAFB12AD
:104EA3004ED21255A412559D743A28F58274FA1203
:104EB3004EE870010BC3946012608940E290FAFAE5
:104EC3007403F090FD72120AB7124F06026F30128C
:104ED3004EDD74BA28F58274F822EAF8EBF9E82873
:104EE300F8E933F9221255AAA3F00AEA223BF58323
:104EF300E4F0223BF583E4F00AEA22E4F0A3F09025
:104F0300F64E2274F1120C5074FC120BEA851082D7
:104F1300851183124337A3123B7985108285118350
:104F23007808120A9990FDC2780C120A99780879C8
:104F33000C1203E08510828511835007122C6F74C5
:104F430041801F7808120A9990FD56780C120A992D
:104F53007808790C12042F500A8510828511831268
:104F63002C6FF08510828511837808120A9990FDC1
:104F7300C6780C120A997808790C12047B90FD729A
:104F8300780C120A997808790C12083A90FD8E78F9
:104F93000C120A997808790C12083A78081202CD93
:104FA300AC08AD097A007B008049125504503F8A52
:104FB30008EB12303E12024A8C0CED12550C120211
:104FC3004A7808790C12083A90FDCA780C120A99AB
:104FD3007808790C12047B90FDCE780C120A99782C
:104FE30008790C12047B78081202CD1262090AEACE
:104FF30070010B1254F950B2ECFEEDFF851082855F
:1050030011837808120A9990FDD2780C120A9978C4
:1050130008790C12047B90FD72780C120A997808B7
:10502300790C12083A90FD8E780C120A9978087957
:105033000C12083A78081202CDAC08AD09EEFAEF6B
:10504300FB8052125504504812552712024A12553A
:105053001C12024A7808790C12083A90FDD6780C93
:10506300120A997808790C12047B90FDCA780C1205
:105073000A997808790C12062090FDCE780C120A52
:10508300997808790C12047B78081202CD12620910
:105093000AEA70010B1254F950A9ECFEEDFF8510DA
:1050A300828511837808120A9990FDDA780C120A26
:1050B300997808790C12047B90FD72780C120A9986
:1050C3007808790C12083A90FD8E780C120A9978B8
:1050D30008790C12083A78081202CDAC08AD09EE33
:1050E300FAEFFB8052125504504812552712024A18
:1050F30012551C12024A7808790C12083A90FDDE08
:10510300780C120A997808790C12047B90FDE278E6
:105113000C120A997808790C12062090FDCE780CAF
:10512300120A997808790C12047B78081202CD12BE
:1051330062090AEA70010B1254F950A9ECFEEDFF63
:105143008510828511837808120A9990FDE6780C00
:10515300120A997808790C12047B90FD72780C126C
:105163000A997808790C12083A90FD8E780C120A85
:10517300997808790C12083A78081202CDAC08AD78
:1051830009EEFAEFFB8056125504504C12552712C4
:10519300024A12551C12024A7808790C12083A90F6
:1051A300FDDE780C120A997808790C12047B750FCE
:1051B3003F750E7D750D70750CA4780C790812057A
:1051C300FB90FDCE7808120A99780C790812047BBB
:1051D300780C1202CD121BD70AEA70010B1254F994
:1051E30050A5ECFEEDFF8510828511837808120A25
:1051F3009990FDEA780C120A997808790C12047BCD
:1052030090FD72780C120A997808790C12083A907A
:10521300FD8E780C120A997808790C12083A7808EE
:105223001202CDAC08AD09EEFAEFFB80561255041D
:10523300504C12552712024A12551C12024A780882
:10524300790C12083A90FDEE780C120A99780879D5
:105253000C12047B750F3F750E66750D66750C6633
:10526300780C79081205FB90FDCE7808120A99781C
:105273000C790812047B780C1202CD121BD70AEAB0
:1052830070010B1254F950A5ECFEEDFF85108285D9
:1052930011837808120A9990FDF2780C120A997812
:1052A30008790C12047B90FD72780C120A99780825
:1052B300790C12083A90FD8E780C120A99780879C5
:1052C3000C12083A78081202CDAC08AD09EEFAEFD9
:1052D300FB8056125504504C12552712024A1255A0
:1052E3001C12024A7808790C12083A90FDF6780CE1
:1052F300120A997808790C12047B750F3F750E1901
:10530300750D99750C9A780C79081205FB90FDCEF2
:105313007808120A99780C790812047B780C120227
:10532300CD121BD70AEA70010B1254F950A5ECFEFB
:10533300EDFF8510828511837808120A9990FDFA92
:10534300780C120A997808790C12047B90FD727814
:105353000C120A997808790C12083A90FD8E780C91
:10536300120A997808790C12083A78081202CDAC1F
:1053730008AD09EEFAEFFB8056125504504C125556
:105383002712024A12551C12024A7808790C120895
:105393003A90FDFE780C120A997808790C12047B76
:1053A300750F3E750E80750D00750C00780C79082D
:1053B3001205FB90FDCE7808120A99780C79081231
:1053C300047B780C1202CD121BD70AEA70010B1270
:1053D30054F950A5ECFEEDFF851082851183780802
:1053E300120A9990FE02780C120A997808790C1225
:1053F300047B90FD72780C120A997808790C1208D4
:105403003A90FD8E780C120A997808790C12083AB2
:1054130078081202CDAC08AD09EEFAEFFB80561204
:105423005504504C12552712024A12551C12024AB7
:105433007808790C12083A90FE06780C120A9978CB
:1054430008790C12047B750F3D750E4C750DCC75E8
:105453000CCD780C79081205FB90FDCE7808120A62
:1054630099780C790812047B780C1202CD121BD7A1
:105473000AEA70010B1254F950A57508007509006A
:10548300750A00750B007A007B0012553EF5827495
:10549300FA39127730120A4D0AEA70010BC394608D
:1054A30012608940E5780812026590FDBE780C12FF
:1054B3000A997808790C12047B7A007B0012553E16
:1054C300F874FA39F9E8FCE9FD8C828D83124326DE
:1054D300120265780C790812083A780C1202CD8C06
:1054E300828D83121BDD0AEA70010BC39460126084
:1054F3008940CA0233DEC3EC9AED9BA2D265D03356
:1055030022C3EA9460EB94002212551022F50D3366
:1055130095E0F50EF50F780C22ECC39EF50CED9F8C
:1055230012551022EAC39EF508EB9F12553222F55D
:10553300093395E0F50AF50B780822125542221239
:105543004EDD743A2822C082C0837C00ECFA1242FA
:1055530071745E28F58274F71255A4747E28F5825F
:1055630074F71255A4749E28F58274F71255A47427
:10557300BE1255B034F7F583E4F074CE1255B0344F
:10558300F7F583E4F074DE1255B034F7F583E4F0F5
:105593000CECC3941040B5024B2D747A28F5827439
:1055A300F91255AAA3F02239F583E4F0221255B477
:1055B300222AF582E422C082C0837800790090F722
:1055C3001AE090F66670107424F090F665742EF06D
:1055D30090F66474C0800E7426F090F6657430F013
:1055E30090F6647470F090F6677410F090F661F0C2
:1055F30090F662F090F663F0746828F58274F61200
:1056030055AA748928F58274F61255AA74AA28F546
:105613008274F61255AA08E8700109C39420E912AE
:10562300608A40D490F6887401F090F6A9F090F661
:10563300CAF090F6CBE4F090F6CCF090F6CDF09073
:10564300F6D4F090F6D5F090F6D6F090F655F090AB
:10565300F656024B2CC0E0C0D0C082C083C2C190BA
:10566300F721C3E0949CA3E09463500690F72112C2
:10567300568990F6517401F0D083D0820259DCF040
:10568300850A82850B83E02401127EE5F02275E40E
:105693000875DB4975DA3D75E20075E544C2C1D290
:1056A300AFD2B975E40A22C0E074F2120CF6C28BD1
:1056B30090F73DC3E0940AA3E09400E5C1400E9047
:1056C300F575F090F5F97401F0A3E48027C0E0903C
:1056D300F5F9E02475F8A3E034F5F988828983D0DD
:1056E300E0F090F5F9C3E0943F125790500790F51E
:1056F300F9127EDEF090F73DE4F0A3F090F5F91295
:10570300578C4060125779506390F575E0FC7D002B
:105713007A767BF5120E36E0FA90F5F9E0C39A1427
:10572300FD7C008023ECF8EA28FAE43400FB74766D
:105733002AF58274F53BF583E0C0E07475124928BD
:1057430034F5F583D0E0F00C90F575E0FAECC39DE9
:1057530040D390F5F9C3E09AF0A3E09400F090F5FC
:10576300F9125F7990F5F91257976005125779404E
:105773008B7F01020D5590F575E0F890F5F91273E2
:1057830065E49BA2D265D03322C3E09401124403A3
:105793002290F7351257F4E84922C0E0C0D0E8C0A0
:1057A300E0E9C0E0C082C083C2E990F5F7C082900F
:1057B300F5F51257F07583F5D08212797AA2D26586
:1057C300D03390F5F74009E4F0A3F0539AFB801629
:1057D300E024B5F8A3E034F5F988828983E0F5C1C4
:1057E30090F5F71256890259D2888289831257F4A9
:1057F30022E0F8A3E0F922C082C08390F5F9E4F037
:10580300A3F0C28B5386FB438640D2AFD2AA024B8E
:105813002DC082C083C2E95386FD90F5B5E0F5C182
:1058230090F5F7740112593FD2AF439A04024B2DFE
:10583300539BFCC2A8439A014391D1D2AF22C0E04B
:10584300C0D0E8C0E0E9C0E0C082C083539BFCE560
:105853009152E9800A75E104C289D2A875E103E592
:10586300E954D1700302591EE5E9A2E0502D53E932
:10587300FE90DF3AE0648090F71812592290F719EE
:10588300F090F7211257F090F71412593190F7372F
:10589300740A12593F90FBD3F0D2A8E5E954C060D3
:1058A30035E5E9A2E7500590F655800390F656E0FA
:1058B30004F053E93F90FBD474FFF090FBD3E4F082
:1058C30075E1047820794E00E824FF18E934FFF9E4
:1058D300E84970F3C2A8E5E9A2E4508353E9EF90E5
:1058E300FBD5E06401600302586290FBD3E4F090BF
:1058F300FBD6125F7990FBD612578C40030258589F
:10590300C2A8C28990DF0274FFF090FBD5E4F07562
:10591300E10475E1024391510258620259D2A3F0A6
:1059230090F654E02290F7141257F490F716E8F02B
:10593300A3E9F0228510828511837405F0A3E4F0B6
:1059430022C0E0C0D0E8C0E0E9C0E0EAC0E0C08225
:10595300C083C289C28990FBD3E0F8745128F8E46C
:1059630034FBF990FBD5E0705090FBD3E0C39480F7
:105973005011E5D988828983F090FBD4F090FBD352
:10598300E004F090FBD4E090FBD37005E070088056
:1059930035E0C39480402FC2A8E024FFF8E434FF2D
:1059A300F990FBD112593190F6527401F075E1046C
:1059B30075E10290FBD3E4800C88828983E0F5D9FA
:1059C30090FBD3E004F0D083D082D0E0FA8004D0FF
:1059D30083D082D0E0F9D0E0F8D0D0D0E032C082DA
:1059E300C08390F65A7436F0A37401F0A37429F0BF
:1059F30090F6A174BBF090F7EE7401F090F7EF749A
:105A0300FFF090F653E4F090F6D504F090F6577457
:105A13001FF0A374FFF0A3741EF090F67874A9F03E
:105A230090F6D8748CF0A37405125DBA744AF0A38F
:105A33007406125DBA748DF0A37404F0A374551246
:105A43005DBE7437F0A37405F0A37437125DBE74A2
:105A5300D7F0A37405F0A3745A125DBE74F4125DFB
:105A6300B37446125DBE740E125DB3745A125DBEFA
:105A7300746D125DB3745512593F90F6D404F090CF
:105A8300F710F090F711F012774790F65D74C0F0BD
:105A9300A3740CF0A3740FF090F6607401F090F609
:105AA300B874AEF090F6D67401F0125ADA04F0909E
:105AB300F7F0F090F7F1746E12593F90F7F37464B6
:105AC30012593F90F7F5746412593F90F74A7403E3
:105AD300F090F730024C9A90F71CE4F090F71DF029
:105AE30090F71EF090F71FF090F72022124D01124D
:105AF30073781259E1124C9F124CB512309379000E
:105B0300125C3D124CCF1257FA1258337A047B00C1
:105B13001234E8120DF57A017B001234E8D2917A3F
:105B2300017B001234E8C2911256918006E004F022
:105B3300126859125C121279F790F652E064017000
